:020000040800F2
:10000000F804002005010008A7130008611100088A
:10001000A5130008A30300087316000800000000E1
:10002000000000000000000000000000D5130008E0
:10003000A503000800000000A9130008D71300085A
:100040001F0100081F0100081F0100081F01000810
:100050001F0100081F0100081F0100081F01000800
:100060001F0100081F0100081F0100081F010008F0
:100070001F0100081F0100081F0100081F010008E0
:100080001F0100081F0100081F0100081F010008D0
:100090001F0100081F0100081F010008C903000814
:1000A0001F0100081F0100081F0100081F010008B0
:1000B0001F0100081F0100081F0100081F010008A0
:1000C0001F0100081F0100081F0100081F01000890
:1000D0001F0100081F0100081F0100081F01000880
:1000E0001F0100081F0100081F010008DFF810D0E1
:1000F00000F036F900480047B5160008AFF300805D
:10010000F80400200648804706480047FEE7FEE75F
:10011000FEE7FEE7FEE7FEE7FEE7FEE7FEE7FEE7B7
:1001200039140008ED000008202A04DB203A21FAE7
:1001300002F00021704721FA02F3D040C2F1200200
:100140009140084319467047D2B201E000F8012BF4
:10015000491EFBD270470022F6E710B513460A4647
:1001600004461946FFF7F0FF204610BD2DE9FE4F6B
:1001700081EA030404F0004421F0004100944FF0B0
:10018000000B23F0004350EA01045ED052EA03045E
:100190005BD0C3F30A54C1F30A552C44A4F2F334E0
:1001A0000194A0FB0254C1F3130141F48011C3F385
:1001B000130343F4801301FB024400FB034E840A43
:1001C000970A44EA815447EA8357A4FB07680295DB
:1001D0008D0A05FB07854FEA932C04FB0C54270579
:1001E000029D4FEA065847EA1637B5EB08056EEB55
:1001F000070C870E920E47EA811742EA8312A7FB8B
:100200000201B6EB0B0164EB00042B0D43EA0C3347
:100210005E1844EB1C50DA465146E7FB0201C5F379
:1002200013044FEA0B3343EA14534FEA0432019CA0
:1002300043EA0603A4F10C040294009CCDE900B447
:1002400000F03FF803B0BDE8F08F00200146F9E769
:100250000EB5C10F80EAE0700844CA07002140F2E1
:1002600033438DE80E000A460B4600F02AF803B02F
:1002700000BDC1F30A5210B5C1F3130140F2FF33C0
:1002800041F480119A4201DA002010BD40F233435C
:100290009A42A2F2334203DC5242FFF745FF10BDFF
:1002A000904010BD10B5141E73F1000408DA401C14
:1002B00041F1000192185B411A4301D120F0010085
:1002C00010BD2DE9F04D92469B4611B1B1FA81F275
:1002D00002E0B0FA80F22032904600F053F8044673
:1002E0000F4640EA0A0041EA0B0153465A460843CA
:1002F00013D0114653EA010019D0C8F1400250460C
:10030000FFF712FF05460E4650465946424600F09A
:1003100039F8084305D0012004E020463946BDE8FD
:10032000F08D0020054346EAE0762C4337430A98D7
:100330006305E40AA0EB08000022FD0A44EA4754E2
:100340000A3002D500200146E9E70105101969418C
:10035000DDE9084500196941BDE8F04DA2E700005C
:10036000064C074D06E0E06840F0010394E8070002
:1003700098471034AC42F6D3FFF7BCFE6C17000868
:100380008C170008202A04DB203A00FA02F1002032
:1003900070479140C2F1200320FA03F319439040C3
:1003A0007047FEE770470000064910B509684FF630
:1003B000FA704862034800F021FDBDE81040014892
:1003C00000F044BD68000020402000F059B872B62B
:1003D000FEE7000001480068704700001800002098
:1003E00070B5044600F052F90546601C02D004487E
:1003F0000078044400F04AF9401BA042FAD370BDD3
:100400000800002070B540280CD1174E402130461E
:1004100000F032F9154D002428B1284600F0EEFC1A
:100420002868446270BD4021304600F025F900285C
:10043000F8D10E4800F00AFD2868406A4FF4AA710E
:10044000484300EBD0700A4D4010FFF701FF094A06
:10045000094BFFF78BFE0022084BFFF787FEFFF7E3
:1004600008FFC5E9000470BD000C0140B000002089
:10047000180000208DEDB5A0F7C6B03E0000594031
:10048000044910B50A68024202D00860FFF7BAFFBB
:1004900010BD0000140401402DE9F84FDFF8B891B9
:1004A0000024A9F1040B23460F2709F1040AABF13C
:1004B000040EC9E00125A5402A40AA427DD1674E1D
:1004C000D1F804C0ACEB0608B44532D014DCBCF162
:1004D000030F3AD009DCBCF1000F2AD0BCF1010FA8
:1004E0001CD0BCF1020F31D11DE0BCF1110F17D0AF
:1004F000BCF1120F2AD119E0B8F5881F19D006DC1B
:10050000B8F5803F15D0B8F5801F1FD111E0B8F5C0
:10051000001F0ED0B8F5041F18D10AE0CB6815E013
:10052000CB681B1D12E0CB6808330FE0CB680C339F
:100530000CE08B682BB1012B4FF0080303D0456111
:1005400004E0042302E0056100E00023FF2A01D853
:10055000064601E000F104064FEA840501D9A5F141
:100560002005D6F8008007FA05FC28EA0C0803FAF3
:1005700005F548EA0508C6F800804D68ED0062D52B
:10058000374DAE6946F00106AE61AD6924F0030651
:1005900005F001050095334D06EB050CDCF808501D
:1005A000A607360F07FA06F825EA0805DFF8B8802F
:1005B000404503D14FF0000817E044E0DFF8AC807D
:1005C000404502D14FF001080FE0DFF8A48040451C
:1005D00002D14FF0020808E0DFF89880404502D1D0
:1005E0004FF0030801E04FF0040808FA06F848EA63
:1005F0000508CCF808804D68D9F80060ED024D463A
:1006000001D5164300E096432E604D68DAF800608D
:10061000AD02554601D5164300E096432E604D6865
:10062000DBF80060AD035D4601D5164300E096435C
:100630002E604D68DEF80060ED03754601D5164367
:1006400000E096432E60641C0D682A46E5407FF466
:1006500031AFBDE8F88F0000080401400000111020
:10066000001002400000014000080140000C014061
:1006700000100140001401408068084000D00120B3
:1006800070470AB1016170470904FBE701488068BF
:100690007047000008000020024881680278114479
:1006A0008160704708000020074810B5016841F0DC
:1006B00010010160032000F075F8002000F006F83A
:1006C00000F024F8002010BD0020024070B50D4D50
:1006D00004464FF47A712878B1FBF0F00A490968B2
:1006E000B1FBF0F000F0BCFA48B9102C07D20022A0
:1006F0002146501E00F036F800206C6070BD0120CD
:1007000070BD000008000020140000200C4808B54F
:10071000816941F001018161816901F0010100916C
:10072000C16941F08051C161C06900F08050009002
:100730000448416821F0E06141F00071416008BD6A
:100740000010024000000140002809DB00F01F02F9
:10075000012191404009800000F1E020C0F8001123
:1007600070470000F0B40E4B1B680C46C3F3022325
:10077000C3F10705042D00D90425191D072901D24D
:10078000002300E0DB1E012606FA05F1491E214088
:1007900099409E40761E16403143F0BC00F06ABF7F
:1007A0000CED00E0064900F0070208684FF6FF0371
:1007B000184040EA0220034A1043086070470000D6
:1007C0000CED00E00000FA052DE9F0470F460500AA
:1007D00061D0434E306800F00700B84209D230685B
:1007E00020F0070038433060306800F00700B8425E
:1007F00051D128683B4C810712D5400703D560686A
:1008000040F4E06060602878000703D5606840F439
:10081000605060606068A96820F0F0000843606084
:100820002878C00728D06868012810D021680228DD
:1008300010D0890700292EDA616821F003010143F5
:100840006160FFF723FF804641F288390DE021689F
:100850008903EFE78901EDE7FFF718FFA0EB080137
:10086000494502D90320BDE8F0876068696800F057
:100870000C00B0EB810FEFD1306800F00700B842F8
:100880000BD9306820F0070038433060306800F042
:100890000700B84201D00120E5E72878400705D5D8
:1008A0006068E96820F4E060084360602878000729
:1008B00006D56068296920F4605040EAC100606094
:1008C00000F018F86168084AC1F30311515CC84090
:1008D0000649086006480068FFF7F8FE0020C2E7F6
:1008E00000200240001002405A17000814000020A7
:1008F0000C0000200E4A51680E4801F00C03042B36
:1009000011D0082B0FD10C48C1F38343C903C05C3D
:100910000AD55168084AC1F34041921E515C054A0C
:100920005043B0FBF1F07047044948437047000062
:100930000010024000127A004A17000800093D002A
:100940002DE9F84F040070D02078C04DC00749D081
:100950006868C0F38100012807D06868C0F381008F
:10096000022809D16868C00306D52868800339D5F4
:1009700060680028E7D035E06068B0F5803F0BD0B4
:1009800010B1B0F5A02F11D0286820F48030286075
:10099000286820F4802002E0286840F48030286035
:1009A000606890B1FFF772FE06460AE0286840F4DE
:1009B00080202860F0E700BFFFF768FE801B6428F6
:1009C00073D828688003F7D50CE0FFF75FFE064672
:1009D00005E000BFFFF75AFE801B6428F0D82868A6
:1009E0008003F7D420789A4E80074FF001094FF02A
:1009F000000839D5686810F00C0F07D06868C0F39C
:100A00008100022809D16868C00306D428688007DD
:100A100014D52069012808D110E02069B0B1C6F8CA
:100A20000090FFF733FE074605E00AE1FFF72EFED0
:100A3000C01B0228C4D828688007F7D528686169D8
:100A400020F0F80040EAC10028600DE0C6F8008000
:100A5000FFF71CFE074604E0FFF718FEC01B022844
:100A600023D828688007F7D4207800072CD5794848
:100A7000A169D9B1C0F80090FFF708FE074604E06D
:100A8000FFF704FEC01B02280FD8686A8007F7D55D
:100A900071484FF4FA510068B0FBF1F0009000BFCC
:100AA0000098411E0091FAD20EE080E0C0F800806C
:100AB000FFF7ECFD074604E0FFF7E8FDC01B022846
:100AC00075D8686A8007F7D42078400760D5E86950
:100AD0000027C00008D4E86940F08050E861E86968
:100AE000012700F0805000905C480168C90513D4CC
:100AF0000168834641F480710160FFF7C7FD8246BB
:100B000006E000BFFFF7C2FDA0EB0A0064284ED844
:100B1000DBF80000C005F5D5E06801280AD008B16F
:100B2000052813D0286A20F001002862286A20F0E6
:100B3000040002E0286A40F001002862E06841F207
:100B4000883B98B1FFF7A2FD82460BE0286A40F08F
:100B500004002862EEE700BFFFF798FDA0EB0A0152
:100B600059455AD8286A8007F6D50CE0FFF78EFD64
:100B7000824605E0FFF78AFDA0EB0A0159454CD8F3
:100B8000286A8007F6D41FB1E86920F08050E86138
:100B9000E06988B36968C1F38101022944D0022861
:100BA000C6F8608004D0FFF771FD044638E034E0F9
:100BB000FFF76CFD074604E0FFF768FDC01B022845
:100BC0002BD828688001F7D4206AB0F5803F05D182
:100BD0006868A16820F4003008436860D4E908011F
:100BE0000843696821F4741108436860C6F860908E
:100BF000FFF74CFD044606E025E000BFFFF746FD89
:100C0000001B022809D828688001F7D51BE000BF27
:100C1000FFF73CFD001B022802D90320BDE8F88F36
:100C200028688001F4D40EE00128F7D06868226AB1
:100C300000F48031914204D1616A00F4701088425E
:100C400001D00120EAE70020E8E7000000100240A0
:100C50000000424280044242140000200070004024
:100C600010B5401EB0F1807F01D3012010BD4FF0C0
:100C7000E02460610F21601700F0FCFC0020A061FF
:100C800007202061002010BD10B590F83C20012AFB
:100C900022D0012280F83C20CA688C6822F440727D
:100CA00022434C6822F4806222430C6822F40062E2
:100CB00022430C6922F4805222434C6922F40052F0
:100CC0002243C969002322F480420A4301684A642E
:100CD00080F83C30002010BD022010BD70B590F8A7
:100CE0003C20012A26D0012480F83C40022280F8D2
:100CF0003D2003685A689D6822F070060A683243F6
:100D00005A600D4B02689A4208D0B2F1804F05D06C
:100D10000A4B9A4202D00A4B9A4204D1496825F004
:100D200080031943916080F83D40002180F83C1019
:100D3000084670BD022070BD002C01400004004038
:100D40000008004010B5040003D094F83D0010B135
:100D500007E0012010BD002084F83C00204600F090
:100D60001FF8022084F83D00211D206800F066FB7A
:100D7000012084F8460084F83E0084F83F0084F89F
:100D8000400084F8410084F8420084F8430084F86D
:100D9000440084F8450084F83D00002010BD0000A8
:100DA00008B5124A01681248914207D1816941F49D
:100DB00000618161806900F4006009E00D4A9142A0
:100DC00008D1C16941F00201C161C06900F00200AF
:100DD000009008BD084A9142FBD1C16941F004016D
:100DE000C161C06900F00400F2E70000002C01407E
:100DF00000100240000400400008004090F83D1040
:100E0000012901D001207047022180F83D100068BF
:100E10000B49884208D0B0F1804F05D0094988427B
:100E200002D00949884204D1816801F007010629EE
:100E300003D0016841F0010101600020704700000B
:100E4000002C0140000400400008004001680A6ACC
:100E500041F211131A4207D10A6A9B101A4203D1B8
:100E60000A6822F001020A60012180F83D1000208A
:100E7000704770B5044690F83C000025012817D053
:100E8000012684F83C60022084F83D0020688268D6
:100E900022F0770222F47F4282600868502838D01E
:100EA0000DDC20284FD005DC90B3102811D14AE08A
:100EB000022070BD302846D040280AD13BE060288F
:100EC0002FD070280DD0B0F5805F03D0B0F5005F53
:100ED00012D0012584F83D60002084F83C002846AB
:100EE00070BDCB68D1E90121206800F0EAFA2068E2
:100EF000816841F0770109E0CB68D1E901212068E0
:100F000000F0DFFA2068816841F480418160E1E708
:100F100019E0CA684968206800F088FB5021206801
:100F200006E0CA684968206800F091FB60212068EB
:100F300000F0D1FACEE7CA684968206800F076FB75
:100F400040212068F4E7226801461046F0E70000DF
:100F500000B585B0002100910191029103910068D4
:100F60000B49884212D10B48816941F0040181612B
:100F70008069694600F0040004904FF4807000908E
:100F80000220019003900448FFF786FA05B000BDE7
:100F9000002C0140001002400008014070B50446DA
:100FA00090F83C0000260D4601280FD0012084F85F
:100FB0003C006AB1042A1DD0082A2FD00C2A3FD049
:100FC0000126002084F83C00304670BD022070BD30
:100FD000206800F089FA2068816941F00801816188
:100FE0002068816921F004018161206881692A6992
:100FF000114311E0206800F09FFA2068816941F4F4
:10100000006181612068816921F4806181612068CB
:1010100081692A6941EA02218161D2E7206800F0F2
:10102000B7FA2068C16941F00801C1612068C1694F
:1010300021F00401C1612068C1692A69114311E0EE
:10104000206800F0D1FA2068C16941F40061C161F3
:101050002068C16921F48061C1612068C1692A6981
:1010600041EA0221C161ACE710B5040003D094F855
:101070003D0010B107E0012010BD002084F83C00C5
:10108000204600F01EF8022084F83D00211D206853
:1010900000F0D4F9012084F8460084F83E0084F87A
:1010A0003F0084F8400084F8410084F8420084F84E
:1010B000430084F8440084F8450084F83D00002093
:1010C00010BD704710B50446022249B104290ED064
:1010D000082913D094F84100012816D0012010BD32
:1010E00094F83E000128F9D184F83E200FE094F8EE
:1010F0003F000128F2D184F83F2008E094F8400036
:101100000128EBD184F8402001E084F8412001223D
:10111000206800F0C9F90F492068884203D1426C69
:1011200042F4004242642068884208D0B0F1804F07
:1011300005D00949884202D00849884204D1816813
:1011400001F00701062903D0016841F001010160A7
:10115000002010BD002C01400004004000080040A9
:10116000FEE7000030B585B00024244800940194C7
:1011700002940394816941F010018161816901F059
:1011800010010491816941F020018161816901F0C0
:1011900020010491816941F004018161816901F0BC
:1011A00004010491816941F0080181618069144D55
:1011B00000F008000490002208212846FFF761FA99
:1011C000082000900120CDE9010402200390694627
:1011D0002846FFF761F9402000900A48CDE9010454
:1011E00069462846FFF758F9002211461720FFF7F5
:1011F000B9FA1720FFF7A8FA05B030BD0010024079
:10120000000C01400000311010B596B000240F947E
:1012100010941194129413941C2108A81494FEF7AE
:101220009AFF20216846FEF796FF2948274901606A
:1012300040F2CF21C0E9011440F2CF71C0E903149C
:1012400044618461FFF77EFD08B1FFF7C0F84FF4F9
:1012500080500F900FA91E48FFF70BFE08B1FFF753
:10126000B6F81B48FFF700FF08B1FFF7B0F813947A
:1012700013A917481494FFF731FD08B1FFF7A7F839
:101280006020CDE908040A940B940C940D9400227C
:1012900008A90F480E94FFF781FE08B1FFF797F8F1
:1012A00000944FF40050CDE904400294019403945B
:1012B000694607480794FFF7E7FC08B1FFF787F88E
:1012C0000348FFF745FE16B010BD0000002C01409A
:1012D0002000002010B586B0002417480094019427
:1012E0000294039404941349059401604721C0E9D2
:1012F00001144FF6FF71C0E903148461FFF722FD6A
:1013000008B1FFF764F84FF48050009069460A482E
:10131000FFF7AFFD08B1FFF75AF8049404A9064897
:101320000594FFF7DBFC002801D0FFF750F806B06A
:1013300010BD0000000400406800002010B586B019
:1013400000241748009401940294039404941349D0
:10135000059401604721C0E901144FF6FF71C0E90F
:1013600003148461FFF7EEFC08B1FFF730F84FF487
:101370008050009069460A48FFF77BFD08B1FFF7EF
:1013800026F8049404A906480594FFF7A7FC002852
:1013900001D0FFF71CF806B010BD000000080040A7
:1013A000B0000020FEE7FEE77047000010B5084CD3
:1013B000012208212046FFF764F90A20FEF7F4FF16
:1013C00020460022BDE810400821FFF75AB900006E
:1013D000000C01407047FFF75FB930B58FB028218E
:1013E0006846FEF7B8FE14210AA8FEF7B4FE0121F4
:1013F0000804CDE900100024029402250491CDE9EF
:1014000007504FF4E01009906846FFF799FA08B1C9
:1014100072B6FEE70F20CDE90A054FF48060CDE9F2
:101420000C4002210AA80E94FFF7CEF9002801D043
:1014300072B6FEE70FB030BD70470000F0B502682D
:10144000164B174C174D4FF08047984205D0B842C5
:1014500003D0A04201D0A84203D122F070064A680E
:101460003243984205D0B84203D0A04201D0A842EE
:1014700003D122F44074CA6822434C6922F08002EE
:10148000224302608A68C2620A688262984201D17D
:101490000969016301214161F0BD0000002C014098
:1014A000000400400008004010B501F01F030121B6
:1014B000046A99408C430462016A9A4011430162B4
:1014C00010BD10B5846842EA032224F47F440A4325
:1014D0002243826010BD826822F070020A4342F00B
:1014E000070181607047000030B5036A026A22F08C
:1014F000010202624268846924F073050C682C437F
:1015000023F002058B682B430A4DA8420BD123F030
:101510000805CB6822F440722B434D6923F0040385
:1015200015438A692A4342608461496841630362C2
:1015300030BD0000002C014030B5026A036A23F080
:1015400010030362436884690D6824F4E64444EAA6
:1015500005248D6822F0200242EA05120B4DA842B4
:101560000ED1CD6822F0800242EA05124D6923F4C3
:10157000406343EA85038D6922F0400243EA850314
:101580004360846149688163026230BD002C014080
:1015900030B5036A026A22F4807202624268C4694A
:1015A00023F4007324F073050C682C438D6843EA20
:1015B00005230C4DA8420ED1CD6823F4006343EA05
:1015C00005234D6922F4405242EA05128D6923F445
:1015D000806342EA05124260C4614968C1630362E4
:1015E00030BD0000002C014030B5046A026A22F4CC
:1015F000805202624268C3690D6823F4E64343EAFD
:1016000005238D6824F4005444EA0534064DA842AD
:1016100004D14D6922F4804242EA85124260C361DE
:1016200049680164046230BD002C014010B5036AB2
:10163000046A24F001040462846924F0F00444EA9A
:10164000021423F00A020A438461026210BD10B53D
:10165000036A046A24F010040462846923F0A0037E
:1016600024F4704444EA023243EA011182610162C7
:1016700010BDFEE70907090E002804DB00F1E02099
:1016800080F80014704700F00F0000F1E02080F8AF
:10169000141D704702E008C8121F08C1002AFAD1C1
:1016A00070477047002001E001C1121F002AFBD1E2
:1016B00070470000FEF7F8FFFFF78FFEFFF752FDBF
:1016C000FFF7A2FDFFF706FEFFF738FE00211B48DB
:1016D000FFF7F8FC1A4C322020604FF47A75284648
:1016E000FEF77EFE642020602846FEF779FE9626EF
:1016F00026602846FEF774FEC82020602846FEF7C4
:101700006FFEFA20206000270E4D8046FEF7BEFFD8
:101710003228FBD9FEF7BAFFFFF748FE2868401CC5
:1017200028602828F2D12F60FEF754FE68600A284E
:1017300002DAC4F80080E9E72660E7E7200000202D
:10174000342C0140000000200102020304050607BA
:1017500008090A0B0C0D0E0F10100000000000000D
:101760000000010203040607080900008C170008A6
:10177000000000202000000094160008AC170008AC
:1017800020000020D8040000A4160008000000007B
:101790000000000001000000100000000000000038
:0C17A0000024F400000000000000000025
:04000005080000ED02
:00000001FF
